:1000000005308A00782D00000A108A100A110B3E74
:1000100003188A0A820000340034003400340034AB
:10002000003400345F3400340034003403340034CE
:100030000334003414343E3414343E341434243441
:100040002A347F342A341234433433340834663447
:100050006134363449345534223450340034053454
:1000600003340034003400341C342234413400346E
:100070000034413422341C340034143408343E3407
:1000800008341434083408343E3408340834003456
:100090005034303400340034083408340834083420
:1000A00008340034603460340034003420341034B8
:1000B0000834043402343E345134493445343E3437
:1000C0000034043402347F34003442346134513417
:1000D00049344634223441344934493436341834AE
:1000E000143412347F3410342734453445344534C5
:1000F00039343E34493449344934323401340134DA
:100100007134093407343634493449344934363487
:1001100026344934493449343E3400343634363494
:10012000003400340034563436340034003408349B
:100130001434223441340034143414341434143458
:100140001434003441342234143408340234013479
:100150005134093406343E344134593455345E3414
:100160007E340934093409347E347F3449344934C7
:10017000493436343E3441344134413422347F34BE
:100180004134413441343E347F3449344934493474
:1001900041347F3409340934093401343E34413464
:1001A000413449343A347F340834083408347F34D5
:1001B000003441347F3441340034303440344034EE
:1001C00040343F347F3408341434223441347F3493
:1001D00040344034403440347F3402340C340234F0
:1001E0007F347F340234043408347F343E34413465
:1001F000413441343E347F340934093409340634FF
:100200001E342134213421345E347F3409340934DE
:10021000093476340A148A100A11820726344934C4
:10022000493449343234013401347F3401340134E7
:100230003F344034403440343F341F342034403461
:1002400020341F347F342034103420347F34413440
:1002500022341C34223441340734083470340834D6
:1002600007346134513449344534433400347F34E5
:10027000413400340034023404340834103420345F
:100280000034003441347F34003404340234013407
:100290000234043440344034403440344034003478
:1002A000013402340434003420345434543454348B
:1002B00078347F3444344434443438343834443427
:1002C00044344434443438344434443444347F343F
:1002D00038345434543454341834043404347E34AC
:1002E0000534053408345434543454343C347F34A5
:1002F0000834043404347834003444347D344034D5
:1003000000342034403444343D3400347F341034DD
:10031000283444340034003441347F3440340034D1
:100320007C3404347834043478347C340834043431
:1003300004347834383444344434443438347C34E9
:100340001434143414340834083414341434143485
:100350007C3400347C340834043404344834543459
:10036000543454342034043404343F344434443456
:100370003C344034403420347C341C342034403409
:1003800020341C343C344034303440343C34443425
:1003900028341034283444340C345034503450341D
:1003A0003C344434643454344C34443400340834DD
:1003B000363441344134003400347F340034003466
:1003C00041344134363408340034023401340234C8
:1003D0000434023400308316880006128312061299
:1003E000DE080319F8298316861083128614FC2967
:1003F0008316061083120614FD29FE2900008316B9
:10040000880183125F088800052A062A00008316E7
:100410008612831286160C2A0D2A00008316861275
:100420008312861283160610831206108316861016
:10043000831286100800F701F8014D0803104E18CA
:10044000F707F70CF80CCE18F707F70CF80C4E1955
:10045000F707F70CF80CCE19F707F70CF80C4E1A43
:10046000F707F70CF80CCE1AF707F70CF80C4E1B31
:10047000F707F70CF80CCE1BF707F70CF80C080081
:100480002010200883168700831207148316861213
:1004900083128612831606108312061083168610A6
:1004A000831286108316061183120611DE01C030F6
:1004B000DF00EA210130DE00C030DF00EA21DE018A
:1004C0004030DF00EA210130DE004030DF00EA2169
:1004D000DE01B830DF00EA210130DE00B830DF0095
:1004E000EA213C0B7D2ADE013F30DF00EA210130AA
:1004F000DE003F30DF00EA21862ADE013E30DF00E9
:10050000EA210130DE003E30DF00EA21BD01BE01FC
:100510003E08073C031CCC2A8316061183120611E1
:10052000DE014030DF00EA210130DE004030DF0034
:10053000EA213E08B838C000DE014008DF00EA21A9
:100540003E08B838C0000130DE004008DF00EA2174
:100550008316061183120615BF013F083F3C031C9A
:10056000CA2AFF30CD003D08CE001B227808C0000B
:10057000DE017808DF00EA21FF30CD003D08CE0023
:100580001B227808C0000130DE007808DF00EA2175
:10059000BF0AAD2ABE0A882A8A110A12B82DFF3076
:1005A00083168800061283120616DD080319DD2A59
:1005B0008316861083128614E12A8316061083128E
:1005C0000614E22AE32A0000831686128312861696
:1005D000E92AEA2A0000FF308316880083120808FF
:1005E000DE0083168612831286128316061083128B
:1005F000061083168610831286105E08F800080025
:100600005B1057083F3C0318082B4030D7025B149F
:100610008316061183120611D713571700305B1883
:100620000130DC00DE005708DF00EA2100305B18F3
:100630000130DC00580CF700F70CF70C1F30F70501
:100640007708BF39B838DD005C08DE005D08DF00E0
:10065000EA21831606118312061500305B1801305B
:10066000DC00DD00CF2200305B180130DC00DD0053
:10067000CF227808DA00590B4D2B58080739DC00D7
:100680000130F7005C08F80003194A2B0310F70D3E
:10069000F80B462B7708DA045D2B58080739DC0085
:1006A0000130F7005C08F80003195A2B0310F70D0E
:1006B000F80B562B7708FF3ADA05831606118312DA
:1006C000061100305B180130DC00DE005708DF0047
:1006D000EA21831606118312061500305B180130DB
:1006E000DC00DE005A08DF00EA2108003F08FA00BB
:1006F0003E08840083137A188317800803194B2C53
:100700003F08FA003E08840083137A188317000814
:10071000523C031CA92B3F08FA003E0884008313B7
:100720007A18831720300002CC00CD000530CE00AF
:100730001B227808CB00F8000530F7004630840013
:100740008313780804208000F80A840AF70BA12B91
:10075000D72B3F08FA003E08840083137A188317CA
:1007600000087E3C031CD22B3F08FA003E088400A0
:1007700083137A18831753300002CC00CD00053064
:10078000CE001B227808CB00F8000530F700463079
:100790008400831378080A218000F80A840AF70B82
:1007A000CA2BD72BC601C701C801C901CA013F081E
:1007B000FA003E08840083137A18831700080A3A67
:1007C0000319E62B073A0319EF2BF12B0730CD0065
:1007D0004008CE001B2201307807BD07462CBC0123
:1007E000462C0530CD004008CE001B2278083C077F
:1007F0007F3C0318042CBC010730CD004008CE001C
:100800001B2201307807BD07C2014208043C031CCB
:10081000462CC3014308063C031C422C46304207C9
:10082000840083130008CB00F7004308F800031985
:100830001D2C0310F70CF80B192C771C402CC4014D
:10084000400844020318402CC50140084502031823
:100850003E2C45083C07CB004308CD004008CE00A5
:100860001B2278083D074407CC004B08D7004C08F2
:10087000D8004108D9000023C50A252CC40A202C21
:10088000C30A0A2CC20A4008BC07052CBE0A031979
:10089000BF0ABC0A762B08000130D000D100D60177
:1008A00047084902D7005708D71F582C5708003C63
:1008B000FA01CE007A08CF0048084A02D70057084C
:1008C000D71F642C5708003CFA01CC007A08CD00F1
:1008D0004708490203186E2CFF30D00048084A022E
:1008E0000318742CFF30D1004D084F02031CC02C9C
:1008F000031D7E2C4C084E02031CC02C0310CC0D93
:10090000CD0D4E084C02F7004D08FA004F08031CAD
:100910004F0FFA027708D2007A08D3004E0852022D
:10092000D4005308D5004F08031C4F0FD502CF0841
:10093000031D9E2C56084E02031CBF2C4708D700EF
:100940004808D8004B08D9000023D31FB12C4C080D
:10095000D2074D0803184D0FD30750084707C700AB
:10096000BD2C5408D20755080318550FD30750085B
:100970004707C70051084807C800D60A972C012D21
:100980000310CE0DCF0D4C084E02F7004F08FA00B1
:100990004D08031C4D0FFA027708D2007A08D300E5
:1009A0004C085202D4005308D5004D08031C4D0FCB
:1009B000D502CD08031DE02C56084C02031C012D66
:1009C0004708D7004808D8004B08D9000023D31F98
:1009D000F32C4E08D2074F0803184F0FD3075108C6
:1009E0004807C800FF2C5408D20755080318550FB4
:1009F000D30750084707C70051084807C800D60A60
:100A0000D92C0800C0080319352D3E083C020318F4
:100A10000E2D3C08C3003E08C400122D3E08C30042
:100A20003C08C4003F083D0203181B2D3D08C500CB
:100A30003F08C6001F2D3F08C5003D08C6004308FB
:100A40004402031C342D4508C20042084602031C20
:100A5000322D4308D7004208D8004108D9000023AE
:100A6000C20A252DC30A1F2D612D3C08C7003D0871
:100A7000C8003E08C9003D08CA004108CB004C240C
:100A80003C08C7003F08C8003E08C9003F08CA002C
:100A90004108CB004C243C08C7003D08C8003C0876
:100AA000C9003F08CA004108CB004C243E08C700DB
:100AB0003D08C8003E08C9003F08CA004108CB00F5
:100AC0004C2408003C308400831300080319752D62
:100AD0000630F800F701F70B6B2DF80B6A2D7B3011
:100AE000F700F70B712D800B682D8A110A12052F64
:100AF00003081F398300FF30A00083161F149F14C2
:100B00001F159F1107309C00831341308312A100F1
:100B10003530A200A3014130A4003430A500A60165
:100B20004130A7003330A800A9014130AA0032307B
:100B3000AB00AC014130AD003130AE00AF0141300F
:100B4000B0003030B100B2015030B3005530B400C5
:100B50004530B5005230B6005430B7004F30B800C1
:100B60005F30B9004130BA00BB010130BC00402AFF
:100B70002130BC001E30BD00BF012130BE0001305D
:100B8000C000C10076233130BC001E30BD00BF0163
:100B90002430BE000130C000C10076234130BC00CB
:100BA0001E30BD00BF012730BE000130C000C100B3
:100BB00076235130BC001E30BD00BF012A30BE007C
:100BC0000130C000C10076236130BC001E30BD0082
:100BD000BF012D30BE000130C000C100762371304E
:100BE000BC001E30BD00BF013030BE000130C0006F
:100BF000C10076231E30BC000530BD00BF0133307C
:100C0000BE000230C0000130C10076238316851675
:100C10008312851A182E2030BC002830BD002E30DB
:100C2000BE003C30BF000130C000C1000225242EB0
:100C30002030BC002830BD002E30BE003C30BF004C
:100C40000130C000C10102252030BC002830BD00A9
:100C50002E30BE003C30BF00C0010130C100022573
:100C6000831605168312051A422E3030BC00283038
:100C7000BD003E30BE003C30BF000130C000C100AE
:100C800002254E2E3030BC002830BD003E30BE0064
:100C90003C30BF000130C000C10102253030BC0033
:100CA0002830BD003E30BE003C30BF00C0010130E6
:100CB000C100022583168515831285196C2E4030DC
:100CC000BC002830BD004E30BE003C30BF000130BB
:100CD000C000C1000225782E4030BC002830BD0085
:100CE0004E30BE003C30BF000130C000C1010225C3
:100CF0004030BC002830BD004E30BE003C30BF004C
:100D0000C0010130C10002258316051583120519A3
:100D1000962E5030BC002830BD005E30BE003C3006
:100D2000BF000130C000C1000225A22E5030BC001F
:100D30002830BD005E30BE003C30BF000130C00036
:100D4000C10102255030BC002830BD005E30BE001D
:100D50003C30BF00C0010130C1000225831685145C
:100D600083128518C02E6030BC002830BD006E3064
:100D7000BE003C30BF000130C000C1000225CC2EB7
:100D80006030BC002830BD006E30BE003C30BF007B
:100D90000130C000C10102256030BC002830BD0018
:100DA0006E30BE003C30BF00C0010130C1000225E2
:100DB0008316051483120518EA2E7030BC00283003
:100DC000BD007E30BE003C30BF000130C000C1001D
:100DD0000225F62E7030BC002830BD007E30BE00EB
:100DE0003C30BF000130C000C10102257030BC00A2
:100DF0002830BD007E30BE003C30BF00C001013055
:0E0E0000C10002256430BC00622D062E630086
:02400E00723FFF
:00000001FF
;PIC16F877A
;CRC=FFB0  CREATED="15-May.-20 20:21"
