:1000000002308A003B2A00000A108A100A11820777
:100010003134323433344134343435343634423488
:1000200037343834393443342A3430342334443484
:10003000D422432641224F104324412900000C00C2
:100040002D30840083130008031933280230F80090
:10005000F701F70B2928F80B28289730F700F70B42
:100060002F28800B26280800331838280812392832
:100070000816831608128312B318402888124128E4
:1000800088168316881283123319482808134928C2
:100090000817831608138312B319502888135128A0
:1000A0008817831688130000831208158316081119
:1000B00059285A2883120811831608118312080040
:1000C000B4018316081600308312081A0130B404F4
:1000D0008316881600308312881A0130F700031047
:1000E000F70D7708B4048316081700308312081B35
:1000F0000130F700F70DF70DFC30F7057708B40471
:100100008316881700308312881B0130F700F70D23
:10011000F70DF70DF830F7057708B4043408F80048
:10012000080083160811081088108312081083161F
:100130000810081688160817881783128814831663
:10014000881000008312081583160811000083121E
:1001500060207808B300081183160811000083128C
:10016000081583160811B428831260207808B2009D
:1001700008118316081108128812081388138312B5
:10018000330EF700F030F70577083204F8007808EE
:10019000B200B21FCD2883169928B008031DD228BB
:1001A0000810D32808148316081000008312881042
:1001B0008316881000008312081183160811831219
:1001C000310EB2000F30B2053208B30034203108CE
:1001D0000F39B200B300342008002830A9000C30D9
:1001E000AA000130AB000630AC00081183160811DC
:1001F0008312081083160810831288108316881043
:1002000008128812081388130811081088100F307C
:100210008312AD0020200130A8002808033C031CF5
:1002200019290330B30034200530AD002020A80A7E
:100230000D290230B30034200530AD002020A80184
:100240002808033C031C3029293028078400831325
:100250000008AD00B0012D08B1009120A80A2029A6
:100260008A110A125C2A8A110A125D2A2D0B392979
:100270003C294030AE003D29AE0101302C02AE07D2
:100280002E088038AF00B0012F08B100912008007F
:100290002B08073A031956290B3A03195B29063A2A
:1002A00003196329023A031969296E290130AC0048
:1002B000AD0036217329B0010130B1009120023028
:1002C000AD00202073290130AC000230AD00362192
:1002D0007329B0011030B100912073290130B000B2
:1002E0002B08B100912008000B08A8008B1383167F
:1002F00003178C170C140000000083120313A81BB3
:100300008B1703170C087F390319C8290313A8009A
:1003100003170D080313A90003170F080313AA00FE
:100320002808AB004821290803178D0003132A0869
:1003300003178F0003130B08AB008B1383160317EF
:100340008C170C140000000083120313AB1B8B17D7
:1003500003170C0D0E0D7F390319C8290313A800CC
:1003600003170D080313A90003170F080313AA00AE
:100370002808AB004821290803178D0003132A0819
:1003800003178F008D0A03198F0A031374290317AB
:1003900003130800A801A00A2008213C03182A2AF8
:1003A0002308FC3E0318ED29043E332AEF30831660
:1003B000860083128600ED29DF30831686008312C3
:1003C0008600ED29BF308316860083128600ED2952
:1003D0007F308316860083128600211CF9290608C7
:1003E0000F390F3C031DF82921102208A800A20193
:1003F000292A06080F390F3C0319242A0608013957
:10040000031D042AA901182A06080239031D0B2A14
:100410000130A900182A06080439031D122A0230E7
:10042000A900182A06080839031D182A0330A90054
:10043000290DF700F70DFC30F70577082307042096
:10044000F800A2002114292AA30A2308043C031956
:10045000A301A001FF308316860083122808F8004C
:100460008A110A12732A0A108A140A118207D629DD
:10047000DC29E229E82903081F398300713083163B
:100480008F0090010F088312A501A40183160317A2
:100490000908C039890003131F129F120030031787
:1004A0008800831287018801890183130313A00147
:1004B0002110A201A301ED283329FF3083169500F6
:1004C000811301308312AC00AD00362118300317C0
:1004D0008D0000308F00031374210130AC00023016
:1004E000AD003621CA297808A60030302602A700C0
:1004F000A6080319912A26082A3C031D872A1F30C3
:1005000003178D0000308F00031374218A2A2608F8
:10051000AB0048210230A800FA30AD002020A80B23
:060520008C2A722A630020
:04400E00F42FFF3F4D
:00000001FF
;PIC16F887
;CRC=6665  CREATED="24-Abr.-20 13:00"
