:1000000000308A00272800000A108A100A1182078F
:100010003F3406345B344F3466346D347D340734FA
:100020007F346F342A308400831300080319262894
:100030000130F800F701F70B1B28F80B1A284A309B
:10004000F700F70B21282428800B18280800030844
:100050001F398300FF30A00083161F149F141F1543
:100060009F1107309C0083138312A101A201A301F9
:10007000A401A501A601A701A8010030A0008316D4
:100080008701831287010130A900A8012808093CD3
:10009000031C0D29A7012708093C031C0B29A601F5
:1000A0002608093C031C0929A5012508093C031C55
:1000B0000729A4012408093C031C0529A3012308DE
:1000C000093C031C0329A2012208093C031C012945
:1000D000A1012108093C031CFF2883168801013077
:1000E0008312880021080420AA000030A000831693
:1000F000870183122A0887002908AA001220831684
:10010000880102308312880022080420AA000030EF
:10011000A0008316870183122A0887002908AA00F5
:1001200012208316880104308312880023080420DB
:10013000AA000030A0008316870183122A088700D6
:100140002908AA001220831688010830831288002B
:1001500024080420AA000030A0008316870183121F
:100160002A0887002908AA00122083168801103067
:100170008312880025080420AA000030A0008316FE
:10018000870183122A0887002908AA0012208316F3
:10019000880120308312880026080420AA0000303D
:1001A000A0008316870183122A0887002908AA0065
:1001B000122083168801403083128800270804200B
:1001C000AA000030A0008316870183122A08870046
:1001D0002908AA0012208316880180308312880023
:1001E00028080420AA000030A0008316870183128B
:1001F0002A0887003230AA001220A10A6928A20A20
:100200006428A30A5F28A40A5A28A50A5528A60A22
:0E0210005028A70A4B28A80A46284528630054
:02400E00793FF8
:00000001FF
;PIC16F877A
;CRC=EBF9  CREATED="10-Abr.-20 13:49"
