:1000000000308A00272800000A108A100A1182078F
:100010003F3406345B344F3466346D347D340734FA
:100020007F346F342330840083130008031926289B
:100030000130F800F701F70B1B28F80B1A284A309B
:10004000F700F70B21282428800B18280800030844
:100050001F398300FF30A00083161F149F141F1543
:100060009F1107309C0083138312A101A201831604
:10007000860183128601A2012208093C031C69281B
:10008000A1012108093C031C672883168501023061
:100090008312850021080420A300831686018312A1
:1000A000230886003230A300122083168501013018
:1000B0008312850022080420A30083168601831280
:1000C000230886003230A3001220A10A4128A20A88
:0600D0003C283B28630000
:02400E00793FF8
:00000001FF
;PIC16F877A
;CRC=26BB  CREATED="10-Abr.-20 12:08"
