:1000000002308A00522A00000A108A100A11820760
:1000100028340C34013406340A108A100A1182077D
:100020004A344F3453344534203449344434203432
:10003000313436342F34303434342F343234323493
:1000400000340A108A100A118207543445344D34A2
:10005000503445345234413454345534523441349C
:100060003A34003432308400000803194428063042
:10007000A100A001A00B3A28A10B39287B30A000D9
:10008000A00B4028800B372808000830A10004305E
:10009000A000A00B49280510831605100330831219
:1000A000A000A00B5128BE0D8510031C5A288316F2
:1000B0008514831203185F28831685108312831614
:1000C00005148312051C6228A10B47280430A000E8
:1000D000A00B682805108316051000008514033056
:1000E0008312A000A00B72280330A000A00B76287A
:1000F000831605148312051C7B28A1010330A00080
:10010000A00B802885182114051083160510831272
:10011000851083168510831208003C08003A0319E5
:100120009528013A0319B828DC283B0EA000F030CE
:10013000A00520082804BD00BE00452000003B0E9D
:10014000A000F030A005200804382804BD00BE003F
:1001500045200330A000A00BAB283B0EA000F030E0
:10016000A0052008FB392804BD00BE004520DC287E
:100170003B0EA000F030A005200801382804BD0087
:10018000BE00452000003B0EA000F030A005200876
:10019000013804382804BD00BE0045200330A0000B
:1001A000A00BD0283B0EA000F030A005200801399C
:1001B0002804BD00BE0045200800831685140430C5
:1001C0008312A000A00BE2288316051403308312CB
:1001D000A000A00BE9288510831685100430831237
:1001E000A000A00BF1280510831605108312240827
:1001F000BE004520380EBA000F30BA053A08BB00E1
:100200003908BC008D2038080F39BA00BB00390806
:10021000BC008D2083168510000005148312051C78
:100220000F290430A000A00B132916290000831603
:10023000851404308312A000A00B1C290800013093
:10024000B800B901DD200230B20032200130A70031
:1002500008002E08A4003008A5002F08A6000B13E4
:100260008B138B1B30293230B20032208316851459
:1002700004308312A000A00B3B2983160514033021
:100280008312A000A00B422985108316851004302C
:100290008312A000A00B4A290510831605108312B3
:1002A0002408BE004520BB01BC018D200F30B200E8
:1002B00032200130B1003108033C031C68290330AF
:1002C000BB00BC018D200530B2003220B10A5B2991
:1002D0000230BB00BC018D200530B20032208316F5
:1002E0008510000005148312051C74290430A00039
:1002F000A00B78297B290000831685140430831213
:10030000A000A00B8129B1013108033C031C9329F3
:1003100031080420B200B800B901DD200530B20078
:100320003220B10A84291F21C0308B046B2A10307F
:10033000B400A001A301B10CB00C031CA529320824
:10034000A0070318A30A3308A307A30CA00CA20C50
:10035000A10CB40B9B290800320825020318B3290D
:100360002508B300B5293208B3003308013A031950
:10037000C329033A0319C529013A0319C829073AC1
:100380000319CB29CE29B501CF294030B500CF299B
:100390001430B500CF295430B500CF29B50131084C
:1003A00026020318D6292608B400D8293108B4003B
:1003B000013034023507B60036088038B700B8007F
:1003C000B901DD20080030080C3A0319EE29063A7D
:1003D0000319F029023A0319FD29022A1F21072ACD
:1003E000A70A270825020318F7290130A7000130C2
:1003F000B1002708B200AC21072A1030B800B901BB
:10040000DD20072A3008B8000130B900DD200800DF
:100410003108A10130020318102A3008A0001C2A5C
:10042000A0010830B200B00DA00D31082002031861
:10043000A000A10DB20B132A080021082E08B0005D
:100440006430B10008222008AE0021083030031DBE
:10045000302AAF1C372AAF19372A2F1A2030332AF7
:10046000AF112F122F14A1072108B000E3212E088D
:10047000B0000A30B10008222008AE002108303058
:10048000031D482AAF194C2A2F1C4C2A2F1A203042
:10049000A1072108B000E3213030AE072E08B000DC
:1004A000E321D22A03081F3983000130A700083056
:1004B000A800AA011F1383161F109F101F119F1160
:1004C000073083129900A9014E30AE001430AF00FE
:1004D0000430B00029291F1383161F109F101F1509
:1004E0009F111F169F161F1383129F171F1408308A
:1004F000A1001F08F33921049F001430B2003220FC
:100500009F149F18812A83161E088312AB001E08B1
:10051000AC002C08B1002B08B000B3010530B200CC
:1005200097212208AF002108AE002208B10021085F
:10053000B000B3016430B20097212208AF00A301DC
:10054000220CA200A20C3F30A2052208AD006430AC
:10055000B20032200130B100B200AC21AE012E0851
:100560000C2000380319B82AAE0AB000E321AF2AE4
:100570000130B1000230B200AC21AE012E082120C2
:1005800000380319C72AAE0AB000E321BE2AC830DA
:10059000B20032202030B000E3212D08AE001B3025
:1005A000AF001D2A2030B000E3210430AE00FA3045
:0C05B000B2003220AE0BD72A772A63007D
:02400E00C23FAF
:00000001FF
;PIC12F675
;CRC=30DD  CREATED="17-Abr.-20 11:50"
