:1000000001308A0070290000CD22C4245200C32090
:10001000CC244229412900014927C921C920CC24E7
:10002000DA2052002A30840083130008031926289E
:100030000130F800F701F70B1B28F80B1A284A309B
:10004000F700F70B21282428800B18280800300E11
:10005000F039F7000F300805770488000000081415
:100060003128081008000808F700080E0F39F800BA
:1000700008008316081088100811831288100F30AA
:1000800083160805F038880083120815000008144C
:10009000000033207808B0000810000008140000A9
:1000A00033207808AF0008100F3083160805880049
:1000B0008312300EF700F030F70577082F04F800B0
:1000C0007808AF00AF1B3F282D1C88102D1888140E
:1000D00000000811000008102E0EAF000F30AF0511
:1000E0002F08B00027202E080F39AF00B0002720BE
:1000F00008002830A6000C30A7000130A800063008
:10010000A9000810881008110F3083160805880010
:100110000810881008110F308312AA001220013035
:10012000A5002508033C031C9D280330B0002720B0
:100130000530AA001220A50A91280230B00027201D
:100140000530AA001220A5012508033C031CB42891
:1001500026302507840083130008AA00AD012A0871
:10016000AE003920A50AA4288A110A1283292A0B75
:10017000BA28BD284030AB00BE28AB0101302902AF
:10018000AB072B088038AC00AD012C08AE0039203D
:1001900008002808073A0319D7280B3A0319DC2866
:1001A000063A0319E428023A0319EA28EF28013035
:1001B000A900AA00B720F428AD010130AE00392013
:1001C0000230AA001220F4280130A9000230AA004F
:1001D000B720F428AD011030AE003920F4280130EA
:1001E000AD002808AE00392008000B08A5008B13CD
:1001F000831603178C170C140000000083120313DE
:10020000A51B8B1703170C087F3903194929031302
:10021000A50003170D080313A60003170F08031307
:10022000A7002508A800C920260803178D0003137E
:10023000270803178F0003130B08A8008B138316DE
:1002400003178C170C140000000083120313A81B63
:100250008B1703170C0D0E0D7F3903194929031352
:10026000A50003170D080313A60003170F080313B7
:10027000A7002508A800C920260803178D0003132E
:10028000270803178F008D0A03198F0A0313F52817
:100290000317031308002508003A03195629013AE9
:1002A00003195E29033A031966296D2920102008D5
:1002B000831687000130831287066D29A01020085D
:1002C000831687000230831287066D2920112008CB
:1002D000831687000430831287068A110A12DA29EE
:1002E00003081F398300FF30A000A201A10183167B
:1002F0001F149F141F159F1107309C008313033098
:100300008312A4007928831606148312061C9329ED
:10031000A30A0230A5009630AA001220A50B8B2953
:100320000C30A800C92001302402230203199A29A5
:100330000318A30123080319A429013A0319B429B6
:10034000033A0319C029CB290130A900AA00B7201C
:10035000043003178D0000308F000313F5200130A7
:10036000A900AA00B720CB29073003178D00003061
:100370008F000313F5200130A900AA00B720CB2974
:100380000C3003178D0000308F000313F52001306F
:10039000A900AA00B720831686148312861CDA29C6
:1003A0000230A5009630AA001220A50BD2292308FE
:0803B000A5004B29832963001D
:02400E00793FF8
:00000001FF
;PIC16F877A
;CRC=5575  CREATED="11-Abr.-20 11:05"
