:1000000005308A000B2D00000A108A100A118207A1
:1000100028340C34013406345F00CA27D322DF248D
:1000200044005F00CA27D322DF2444008A110A1249
:100030002B2D433084008313000803192C28023031
:10004000F800F701F70B2228F80B21289730F7006A
:10005000F70B2828800B1F2808000830F800000044
:1000600008108316081000008312D00D8810031C9E
:100070003C2883168814831203184128831688109D
:100080008312831608148312081C4428F80B2F28A7
:1000900000000810831608100000881400000000FB
:1000A00008148312081C5228F801000088187814DC
:1000B0000810831608108312881083168810831284
:1000C00008004E08003A03196928013A03198A28E2
:1000D000AC284D0EF700F030F70577082404CF0068
:1000E000D0002D2000004D0EF700F030F705770806
:1000F00004382404CF00D0002D207E287F284D0E08
:10010000F700F030F7057708FB392404CF00D00062
:100110002D20AC284D0EF700F030F7057708013898
:100120002404CF00D0002D2000004D0EF700F03049
:10013000F7057708013804382404CF00D0002D20BB
:10014000A128A2284D0EF700F030F70577080139F5
:100150002404CF00D0002D2008008316881400004E
:100160000814000083128810831688100000831280
:1001700008108316081083122008D0002D204A0E84
:10018000CC000F30CC054C08CD004B08CE006120D0
:100190004A080F39CC00CD004B08CE0061208316F1
:1001A0008810000008148312081CD4280000D828E6
:1001B0000000831688140000831208000130CA0072
:1001C000CB01AD200230C30019200130A30008008C
:1001D0002D08A0002F08A1002E08A2000B138B13DE
:1001E0008B1BEF283230C3001920831688140000BF
:1001F00008140000831288108316881000008312F0
:1002000008108316081083122008D0002D20CD017D
:10021000CE0161200F30C30019200130B00030083A
:10022000033C031C1C290330CD00CE0161200530A6
:10023000C3001920B00A0F290230CD00CE01612081
:100240000530C3001920831688100000081483129B
:10025000081C282900002C2900008316881400009F
:100260008312B0013008033C031C412930080420EC
:10027000B100CA00CB01AD200530C3001920B00A7F
:100280003229DE20C0308B048A110A12452DAD08B8
:1002900003194D290830A4004E29A4018A110A121D
:1002A000482D44082102031858292108C5005A295D
:1002B0004408C5004508013A03196829033A03199F
:1002C0006A29013A03196D29073A0319702973291C
:1002D000C70174294030C70074291430C70074293D
:1002E0005430C7007429C7014308220203187B2930
:1002F0002208C6007D294308C60001304602470790
:10030000C80048088038C900CA00CB01AD200800E9
:1003100042080C3A03199329063A03199529023A1F
:100320000319A229A729DE20AC29A30A2308210248
:1003300003189C290130A3000130C3002308C40026
:100340005121AC291030CA00CB01AD20AC294208A4
:10035000CA000130CB00AD2008000B08AD008B13A4
:10036000831603178C170C1400000000831203136C
:10037000AD1B8B1703170C087F390319012A0313D0
:10038000AD0003170D080313AE0003170F08031386
:10039000AF002D08C20088212E0803178D0003131B
:1003A0002F0803178F0003130B08B0008B1383165D
:1003B00003178C170C140000000083120313B01BEA
:1003C0008B1703170C0D0E0D7F390319012A031328
:1003D000AD0003170D080313AE0003170F08031336
:1003E000AF002D08C20088212E0803178D000313CB
:1003F0002F0803178F008D0A03198F0A0313AD29E5
:1004000003170313080042080319732ACA00460899
:100410000319732ACA070318142A7F30CA02031C5F
:10042000732A0319732A182A8130CA070318732AFA
:100430004A08F700F801F901FA014308CE00CE1787
:100440004408CD004508CC001830CA00CB014C1C34
:10045000412A4908FA07031C332AF90A031D332AE3
:10046000F80A0319CB174808F907031C3A2AF80AB7
:100470000319CB174708C400C4174408F80703182A
:10048000CB17CB0DF80CF90CFA0CCE0CCD0CCC0C18
:100490000310CA0B262A0130F7070318732AF81B2A
:1004A000582ACE0DFA0DF90DF80DF7030319732A2A
:1004B000CE1F692AFA0A031D692AF90A031D692A4F
:1004C000F80A031D692AF80CF90CFA0CF70A03194B
:1004D000732A4308CB004708CB06CB1F712AF817B5
:1004E000772AF813772AF701F801F901FA010800D1
:1004F00083187D2A4A3084008313F701F801F9013B
:10050000FA01CA01CB01CC01CD01490848044704D6
:1005100046040319BB2A2030CE000310C20DC30DC0
:10052000C40DC50DCA0DCB0DCC0DCD0D49084D0226
:10053000031DA42A48084C02031DA42A47084B02A5
:10054000031DA42A46084A02031CB52A4608CA020B
:100550004708031C470FCB024808031C480FCC0276
:100560004908031C490FCD020314F70DF80DF90DCE
:10057000FA0DCE0B8D2A4A088000840A4B088000B1
:10058000840A4C088000840A4D0880000800040892
:10059000BA003908BC000319E62A3808C500370834
:1005A000C4003608C3003508C200C901C8012030A4
:1005B000C7008230C60003227A08B8007908B70065
:1005C0007808B6007708B500BC0BCD2A3808C500FE
:1005D0003708C4003608C3003508C2004208B63CDC
:1005E000C200FA014308C600C3170310C30CC40CB1
:1005F000C50CFA0CF90CF80CF70CC20BF52AC61F47
:100600000C2BF709F809F909FA09F70A0319F80A8E
:100610000319F90A0319FA0A7A08B8007908B70029
:100620007808B6007708B500B81F232BBA03BA16AE
:10063000B509B609B709B809B50A0319B60A031905
:10064000B70A0319B80A3B30C1009A30C000CA305B
:10065000BF00BE010A30BC0039080319BA0A83146E
:100660003530840083133808C5003708C4003608C5
:10067000C3003508C2004108C9004008C8003F084F
:10068000C7003E08C60078227808F708031D5B2BD8
:10069000390A3C0203195B2B3A0803195D2B0F3909
:1006A0003C020319552B03188D2BBA1B8D2B3A1BBB
:1006B0005D2B2030892B2030BA05BA1E6B2BBA1265
:1006C0003908031DBA037708BA002D30C20088210B
:1006D0003A08F700BA0139083C02031D792B770864
:1006E000BA002E30C20088213A08F7002030BA053F
:1006F00000303030BA1E892BBA123908031DBA03F4
:100700007708BA002D30C20088213A08F700BA01F4
:100710003030F7077708C200882183104108C500F0
:100720004008C4003F08C3003E08C200C901C80118
:10073000C7010A30C60078227A08C1007908C000D3
:100740007808BF007708BE00BC0B2F2B08000030D4
:10075000F8001F08C33978049F009F149F18AE2B20
:100760001E08FA0083161E088312B5007A08B60028
:100770008E30F7003608F8003508F900FA01F8085D
:10078000031DCC2B7908F800F9010830F702F808AE
:10079000031DCC2BF701D42B0310F81BD32BF90D21
:1007A000F80DF703CC2BF8137A08B0007908AF00E6
:1007B0007808AE007708AD00CD30C500CC30C4005D
:1007C0001C30C3008130C2003008C9002F08C800A7
:1007D0002E08C7002D08C60003227A08B800790841
:1007E000B7007808B6007708B5003808BC003708AD
:1007F000BB003608BA003508B900C001C030BF00E0
:100800007F30BE008830BD0039080319C92CC500EF
:100810003D080319C92CC502031C132C7F30C507E2
:100820000318C92C192C8130C502031CC92C0319CB
:10083000C92C4508F700F801F901FA01C4013A088A
:10084000C300C3173B08C2003C08C1001930C500F3
:100850004008C10203183C2C0130C20203183C2C92
:10086000C30203183C2CC40203183C2CC40AC30A5C
:10087000C20A4008C1076E2C3F08C2020318572C59
:100880000130C3020318572CC4020318572CC40AA2
:10089000C30A3F08C2074008C107031C6E2CC20AE6
:1008A000031D6E2CC30A031D6E2CC40A6E2C3E0859
:1008B0008038C30203186D2C0130C40203186D2C5C
:1008C000C40A3E088038C3073F08C207031C4B2CEC
:1008D000C30A031D4B2CC40A4B2C7A14C50B712C74
:1008E0007C2C0310C10DC20DC30DC40D0310FA0DF5
:1008F000F90DF80DC60D282C461C842C0310F80C9D
:10090000F90CFA0CC60C872CF7030319C92CC61B6B
:10091000B02C0310C10DC20DC30DC40D4008C1029F
:1009200003189C2C0130C20203189C2CC30203182C
:100930009C2CC402031CBF2C3F08C2020318A72C26
:100940000130C3020318A72CC402031CBF2C3E08AD
:100950008038C3020318B02C0130C402031CBF2C22
:10096000FA0A031DBF2CF90A031DBF2CF80A031D48
:10097000BF2CF70A0319C92CF80CF90CFA0C3A0829
:10098000C5003E08C506C51FC72CF817CD2CF813A7
:10099000CD2CF701F801F901FA017A08B4007908C1
:1009A000B3007808B2007708B1000530C300192001
:1009B0000130C300C40051214130C20088213030D1
:1009C000C20088213A30C2008821033084003008F8
:1009D000B8002F08B7002E08B6002D08B50001306A
:1009E000B900C7220B30C3000130C400512156307A
:1009F000C20088213A30C2008821033084003408C4
:100A0000B8003308B7003208B6003108B50002302C
:100A1000B900C722080003081F3983000130A30072
:100A20000830A400AC01AB01831603170908C039D4
:100A3000890003131F129F120030031788008312CE
:100A400087018801890183130313A501A6012710DB
:100A5000A801A9011628831603170908C0398900BF
:100A600003131F129F120030031788008312031311
:100A70001F179F1783169F1783121F144E30AD0048
:100A80001030AE000230AF00E8280130AD00472939
:100A90000130AA002A080A3C031C6E2D01302A02EC
:100AA000AD00C3000230C40051210C3003178D008B
:100AB00000308F000313AD212A08C3000230C400A8
:100AC00051210D3003178D0000308F000313AD212D
:100AD000FA30C3001920A723AA0A4A2D0A30AA0017
:100AE0002A08003C0318942D07302A07AD00C300E4
:100AF0000230C4005121113003178D0000308F00E7
:100B00000313AD212A08C3000230C4005121123062
:100B100003178D0000308F000313AD21FA30C3009E
:0C0B20001920A723AA03702D482D6300A4
:04400E00E22CFF3F62
:00000001FF
;PIC16F887
;CRC=0033  CREATED="19-Abr.-20 12:16"
