:1000000000308A003F28000022308400831300085B
:10001000031918280130F800F701F70B0D28F80B29
:100020000C284A30F700F70B13281628800B0A28F3
:10003000080083168801553083128800C830A2005A
:10004000042083168801AA3083128800C830A200D9
:1000500004208A110A12512883168801F030831275
:100060008800C830A2000420831688010F30831254
:100070008800C830A20004208A110A1259280308F7
:100080001F39830083161F149F141F159F110730FB
:100090009C0083138312A1012108093C031C5328EF
:1000A0001928A10A4C28A1012108093C031C5B283E
:0A00B0002C28A10A54284B286300F5
:02400E00713F00
:00000001FF
;PIC16F877A
;CRC=843C  CREATED="09-Abr.-20 11:27"
